{
  "contractName": "NFT",
  "abi": [
    {
      "inputs": [
        {
          "internalType": "address",
          "name": "marketplaceAddress",
          "type": "address"
        }
      ],
      "stateMutability": "nonpayable",
      "type": "constructor"
    },
    {
      "anonymous": false,
      "inputs": [
        {
          "indexed": true,
          "internalType": "address",
          "name": "owner",
          "type": "address"
        },
        {
          "indexed": true,
          "internalType": "address",
          "name": "approved",
          "type": "address"
        },
        {
          "indexed": true,
          "internalType": "uint256",
          "name": "tokenId",
          "type": "uint256"
        }
      ],
      "name": "Approval",
      "type": "event"
    },
    {
      "anonymous": false,
      "inputs": [
        {
          "indexed": true,
          "internalType": "address",
          "name": "owner",
          "type": "address"
        },
        {
          "indexed": true,
          "internalType": "address",
          "name": "operator",
          "type": "address"
        },
        {
          "indexed": false,
          "internalType": "bool",
          "name": "approved",
          "type": "bool"
        }
      ],
      "name": "ApprovalForAll",
      "type": "event"
    },
    {
      "anonymous": false,
      "inputs": [
        {
          "indexed": true,
          "internalType": "address",
          "name": "from",
          "type": "address"
        },
        {
          "indexed": true,
          "internalType": "address",
          "name": "to",
          "type": "address"
        },
        {
          "indexed": true,
          "internalType": "uint256",
          "name": "tokenId",
          "type": "uint256"
        }
      ],
      "name": "Transfer",
      "type": "event"
    },
    {
      "inputs": [
        {
          "internalType": "address",
          "name": "to",
          "type": "address"
        },
        {
          "internalType": "uint256",
          "name": "tokenId",
          "type": "uint256"
        }
      ],
      "name": "approve",
      "outputs": [],
      "stateMutability": "nonpayable",
      "type": "function"
    },
    {
      "inputs": [
        {
          "internalType": "address",
          "name": "owner",
          "type": "address"
        }
      ],
      "name": "balanceOf",
      "outputs": [
        {
          "internalType": "uint256",
          "name": "",
          "type": "uint256"
        }
      ],
      "stateMutability": "view",
      "type": "function",
      "constant": true
    },
    {
      "inputs": [
        {
          "internalType": "uint256",
          "name": "tokenId",
          "type": "uint256"
        }
      ],
      "name": "getApproved",
      "outputs": [
        {
          "internalType": "address",
          "name": "",
          "type": "address"
        }
      ],
      "stateMutability": "view",
      "type": "function",
      "constant": true
    },
    {
      "inputs": [
        {
          "internalType": "address",
          "name": "owner",
          "type": "address"
        },
        {
          "internalType": "address",
          "name": "operator",
          "type": "address"
        }
      ],
      "name": "isApprovedForAll",
      "outputs": [
        {
          "internalType": "bool",
          "name": "",
          "type": "bool"
        }
      ],
      "stateMutability": "view",
      "type": "function",
      "constant": true
    },
    {
      "inputs": [],
      "name": "name",
      "outputs": [
        {
          "internalType": "string",
          "name": "",
          "type": "string"
        }
      ],
      "stateMutability": "view",
      "type": "function",
      "constant": true
    },
    {
      "inputs": [
        {
          "internalType": "uint256",
          "name": "tokenId",
          "type": "uint256"
        }
      ],
      "name": "ownerOf",
      "outputs": [
        {
          "internalType": "address",
          "name": "",
          "type": "address"
        }
      ],
      "stateMutability": "view",
      "type": "function",
      "constant": true
    },
    {
      "inputs": [
        {
          "internalType": "address",
          "name": "from",
          "type": "address"
        },
        {
          "internalType": "address",
          "name": "to",
          "type": "address"
        },
        {
          "internalType": "uint256",
          "name": "tokenId",
          "type": "uint256"
        }
      ],
      "name": "safeTransferFrom",
      "outputs": [],
      "stateMutability": "nonpayable",
      "type": "function"
    },
    {
      "inputs": [
        {
          "internalType": "address",
          "name": "from",
          "type": "address"
        },
        {
          "internalType": "address",
          "name": "to",
          "type": "address"
        },
        {
          "internalType": "uint256",
          "name": "tokenId",
          "type": "uint256"
        },
        {
          "internalType": "bytes",
          "name": "_data",
          "type": "bytes"
        }
      ],
      "name": "safeTransferFrom",
      "outputs": [],
      "stateMutability": "nonpayable",
      "type": "function"
    },
    {
      "inputs": [
        {
          "internalType": "address",
          "name": "operator",
          "type": "address"
        },
        {
          "internalType": "bool",
          "name": "approved",
          "type": "bool"
        }
      ],
      "name": "setApprovalForAll",
      "outputs": [],
      "stateMutability": "nonpayable",
      "type": "function"
    },
    {
      "inputs": [
        {
          "internalType": "bytes4",
          "name": "interfaceId",
          "type": "bytes4"
        }
      ],
      "name": "supportsInterface",
      "outputs": [
        {
          "internalType": "bool",
          "name": "",
          "type": "bool"
        }
      ],
      "stateMutability": "view",
      "type": "function",
      "constant": true
    },
    {
      "inputs": [],
      "name": "symbol",
      "outputs": [
        {
          "internalType": "string",
          "name": "",
          "type": "string"
        }
      ],
      "stateMutability": "view",
      "type": "function",
      "constant": true
    },
    {
      "inputs": [
        {
          "internalType": "uint256",
          "name": "tokenId",
          "type": "uint256"
        }
      ],
      "name": "tokenURI",
      "outputs": [
        {
          "internalType": "string",
          "name": "",
          "type": "string"
        }
      ],
      "stateMutability": "view",
      "type": "function",
      "constant": true
    },
    {
      "inputs": [
        {
          "internalType": "address",
          "name": "from",
          "type": "address"
        },
        {
          "internalType": "address",
          "name": "to",
          "type": "address"
        },
        {
          "internalType": "uint256",
          "name": "tokenId",
          "type": "uint256"
        }
      ],
      "name": "transferFrom",
      "outputs": [],
      "stateMutability": "nonpayable",
      "type": "function"
    },
    {
      "inputs": [
        {
          "internalType": "string",
          "name": "nftTokenURl",
          "type": "string"
        }
      ],
      "name": "createNFtToken",
      "outputs": [
        {
          "internalType": "uint256",
          "name": "",
          "type": "uint256"
        }
      ],
      "stateMutability": "nonpayable",
      "type": "function"
    }
  ],
  "bytecode": "0x60806040523480156200001157600080fd5b5060405162002e9c38038062002e9c833981810160405281019062000037919062000239565b6040518060400160405280600981526020017f6172616269634e467400000000000000000000000000000000000000000000008152506040518060400160405280600581526020017f61724e46540000000000000000000000000000000000000000000000000000008152508160009080519060200190620000bb9291906200011f565b508060019080519060200190620000d49291906200011f565b50505080600860006101000a81548173ffffffffffffffffffffffffffffffffffffffff021916908373ffffffffffffffffffffffffffffffffffffffff16021790555050620002d0565b8280546200012d906200029a565b90600052602060002090601f0160209004810192826200015157600085556200019d565b82601f106200016c57805160ff19168380011785556200019d565b828001600101855582156200019d579182015b828111156200019c5782518255916020019190600101906200017f565b5b509050620001ac9190620001b0565b5090565b5b80821115620001cb576000816000905550600101620001b1565b5090565b600080fd5b600073ffffffffffffffffffffffffffffffffffffffff82169050919050565b60006200020182620001d4565b9050919050565b6200021381620001f4565b81146200021f57600080fd5b50565b600081519050620002338162000208565b92915050565b600060208284031215620002525762000251620001cf565b5b6000620002628482850162000222565b91505092915050565b7f4e487b7100000000000000000000000000000000000000000000000000000000600052602260045260246000fd5b60006002820490506001821680620002b357607f821691505b60208210811415620002ca57620002c96200026b565b5b50919050565b612bbc80620002e06000396000f3fe608060405234801561001057600080fd5b50600436106100ea5760003560e01c806370a082311161008c578063b88d4fde11610066578063b88d4fde1461025b578063c87b56dd14610277578063cb18ee7b146102a7578063e985e9c5146102d7576100ea565b806370a08231146101f157806395d89b4114610221578063a22cb4651461023f576100ea565b8063095ea7b3116100c8578063095ea7b31461016d57806323b872dd1461018957806342842e0e146101a55780636352211e146101c1576100ea565b806301ffc9a7146100ef57806306fdde031461011f578063081812fc1461013d575b600080fd5b61010960048036038101906101049190611931565b610307565b6040516101169190611979565b60405180910390f35b6101276103e9565b6040516101349190611a2d565b60405180910390f35b61015760048036038101906101529190611a85565b61047b565b6040516101649190611af3565b60405180910390f35b61018760048036038101906101829190611b3a565b610500565b005b6101a3600480360381019061019e9190611b7a565b610618565b005b6101bf60048036038101906101ba9190611b7a565b610678565b005b6101db60048036038101906101d69190611a85565b610698565b6040516101e89190611af3565b60405180910390f35b61020b60048036038101906102069190611bcd565b61074a565b6040516102189190611c09565b60405180910390f35b610229610802565b6040516102369190611a2d565b60405180910390f35b61025960048036038101906102549190611c50565b610894565b005b61027560048036038101906102709190611dc5565b610a15565b005b610291600480360381019061028c9190611a85565b610a77565b60405161029e9190611a2d565b60405180910390f35b6102c160048036038101906102bc9190611ee9565b610bc9565b6040516102ce9190611c09565b60405180910390f35b6102f160048036038101906102ec9190611f32565b610c2d565b6040516102fe9190611979565b60405180910390f35b60007f80ac58cd000000000000000000000000000000000000000000000000000000007bffffffffffffffffffffffffffffffffffffffffffffffffffffffff1916827bffffffffffffffffffffffffffffffffffffffffffffffffffffffff191614806103d257507f5b5e139f000000000000000000000000000000000000000000000000000000007bffffffffffffffffffffffffffffffffffffffffffffffffffffffff1916827bffffffffffffffffffffffffffffffffffffffffffffffffffffffff1916145b806103e257506103e182610cc1565b5b9050919050565b6060600080546103f890611fa1565b80601f016020809104026020016040519081016040528092919081815260200182805461042490611fa1565b80156104715780601f1061044657610100808354040283529160200191610471565b820191906000526020600020905b81548152906001019060200180831161045457829003601f168201915b5050505050905090565b600061048682610d2b565b6104c5576040517f08c379a00000000000000000000000000000000000000000000000000000000081526004016104bc90612045565b60405180910390fd5b6004600083815260200190815260200160002060009054906101000a900473ffffffffffffffffffffffffffffffffffffffff169050919050565b600061050b82610698565b90508073ffffffffffffffffffffffffffffffffffffffff168373ffffffffffffffffffffffffffffffffffffffff16141561057c576040517f08c379a0000000000000000000000000000000000000000000000000000000008152600401610573906120d7565b60405180910390fd5b8073ffffffffffffffffffffffffffffffffffffffff1661059b610d97565b73ffffffffffffffffffffffffffffffffffffffff1614806105ca57506105c9816105c4610d97565b610c2d565b5b610609576040517f08c379a000000000000000000000000000000000000000000000000000000000815260040161060090612169565b60405180910390fd5b6106138383610d9f565b505050565b610629610623610d97565b82610e58565b610668576040517f08c379a000000000000000000000000000000000000000000000000000000000815260040161065f906121fb565b60405180910390fd5b610673838383610f36565b505050565b61069383838360405180602001604052806000815250610a15565b505050565b6000806002600084815260200190815260200160002060009054906101000a900473ffffffffffffffffffffffffffffffffffffffff169050600073ffffffffffffffffffffffffffffffffffffffff168173ffffffffffffffffffffffffffffffffffffffff161415610741576040517f08c379a00000000000000000000000000000000000000000000000000000000081526004016107389061228d565b60405180910390fd5b80915050919050565b60008073ffffffffffffffffffffffffffffffffffffffff168273ffffffffffffffffffffffffffffffffffffffff1614156107bb576040517f08c379a00000000000000000000000000000000000000000000000000000000081526004016107b29061231f565b60405180910390fd5b600360008373ffffffffffffffffffffffffffffffffffffffff1673ffffffffffffffffffffffffffffffffffffffff168152602001908152602001600020549050919050565b60606001805461081190611fa1565b80601f016020809104026020016040519081016040528092919081815260200182805461083d90611fa1565b801561088a5780601f1061085f5761010080835404028352916020019161088a565b820191906000526020600020905b81548152906001019060200180831161086d57829003601f168201915b5050505050905090565b61089c610d97565b73ffffffffffffffffffffffffffffffffffffffff168273ffffffffffffffffffffffffffffffffffffffff16141561090a576040517f08c379a00000000000000000000000000000000000000000000000000000000081526004016109019061238b565b60405180910390fd5b8060056000610917610d97565b73ffffffffffffffffffffffffffffffffffffffff1673ffffffffffffffffffffffffffffffffffffffff16815260200190815260200160002060008473ffffffffffffffffffffffffffffffffffffffff1673ffffffffffffffffffffffffffffffffffffffff16815260200190815260200160002060006101000a81548160ff0219169083151502179055508173ffffffffffffffffffffffffffffffffffffffff166109c4610d97565b73ffffffffffffffffffffffffffffffffffffffff167f17307eab39ab6107e8899845ad3d59bd9653f200f220920489ca2b5937696c3183604051610a099190611979565b60405180910390a35050565b610a26610a20610d97565b83610e58565b610a65576040517f08c379a0000000000000000000000000000000000000000000000000000000008152600401610a5c906121fb565b60405180910390fd5b610a7184848484611192565b50505050565b6060610a8282610d2b565b610ac1576040517f08c379a0000000000000000000000000000000000000000000000000000000008152600401610ab89061241d565b60405180910390fd5b6000600660008481526020019081526020016000208054610ae190611fa1565b80601f0160208091040260200160405190810160405280929190818152602001828054610b0d90611fa1565b8015610b5a5780601f10610b2f57610100808354040283529160200191610b5a565b820191906000526020600020905b815481529060010190602001808311610b3d57829003601f168201915b505050505090506000610b6b6111ee565b9050600081511415610b81578192505050610bc4565b600082511115610bb6578082604051602001610b9e929190612479565b60405160208183030381529060405292505050610bc4565b610bbf84611205565b925050505b919050565b6000610bd560076112ac565b6000610be160076112c2565b9050610bed33826112d0565b610bf7818461149e565b610c24600860009054906101000a900473ffffffffffffffffffffffffffffffffffffffff166001610894565b80915050919050565b6000600560008473ffffffffffffffffffffffffffffffffffffffff1673ffffffffffffffffffffffffffffffffffffffff16815260200190815260200160002060008373ffffffffffffffffffffffffffffffffffffffff1673ffffffffffffffffffffffffffffffffffffffff16815260200190815260200160002060009054906101000a900460ff16905092915050565b60007f01ffc9a7000000000000000000000000000000000000000000000000000000007bffffffffffffffffffffffffffffffffffffffffffffffffffffffff1916827bffffffffffffffffffffffffffffffffffffffffffffffffffffffff1916149050919050565b60008073ffffffffffffffffffffffffffffffffffffffff166002600084815260200190815260200160002060009054906101000a900473ffffffffffffffffffffffffffffffffffffffff1673ffffffffffffffffffffffffffffffffffffffff1614159050919050565b600033905090565b816004600083815260200190815260200160002060006101000a81548173ffffffffffffffffffffffffffffffffffffffff021916908373ffffffffffffffffffffffffffffffffffffffff160217905550808273ffffffffffffffffffffffffffffffffffffffff16610e1283610698565b73ffffffffffffffffffffffffffffffffffffffff167f8c5be1e5ebec7d5bd14f71427d1e84f3dd0314c0f7b2291e5b200ac8c7c3b92560405160405180910390a45050565b6000610e6382610d2b565b610ea2576040517f08c379a0000000000000000000000000000000000000000000000000000000008152600401610e999061250f565b60405180910390fd5b6000610ead83610698565b90508073ffffffffffffffffffffffffffffffffffffffff168473ffffffffffffffffffffffffffffffffffffffff161480610f1c57508373ffffffffffffffffffffffffffffffffffffffff16610f048461047b565b73ffffffffffffffffffffffffffffffffffffffff16145b80610f2d5750610f2c8185610c2d565b5b91505092915050565b8273ffffffffffffffffffffffffffffffffffffffff16610f5682610698565b73ffffffffffffffffffffffffffffffffffffffff1614610fac576040517f08c379a0000000000000000000000000000000000000000000000000000000008152600401610fa3906125a1565b60405180910390fd5b600073ffffffffffffffffffffffffffffffffffffffff168273ffffffffffffffffffffffffffffffffffffffff16141561101c576040517f08c379a000000000000000000000000000000000000000000000000000000000815260040161101390612633565b60405180910390fd5b611027838383611512565b611032600082610d9f565b6001600360008573ffffffffffffffffffffffffffffffffffffffff1673ffffffffffffffffffffffffffffffffffffffff16815260200190815260200160002060008282546110829190612682565b925050819055506001600360008473ffffffffffffffffffffffffffffffffffffffff1673ffffffffffffffffffffffffffffffffffffffff16815260200190815260200160002060008282546110d991906126b6565b92505081905550816002600083815260200190815260200160002060006101000a81548173ffffffffffffffffffffffffffffffffffffffff021916908373ffffffffffffffffffffffffffffffffffffffff160217905550808273ffffffffffffffffffffffffffffffffffffffff168473ffffffffffffffffffffffffffffffffffffffff167fddf252ad1be2c89b69c2b068fc378daa952ba7f163c4a11628f55a4df523b3ef60405160405180910390a4505050565b61119d848484610f36565b6111a984848484611517565b6111e8576040517f08c379a00000000000000000000000000000000000000000000000000000000081526004016111df9061277e565b60405180910390fd5b50505050565b606060405180602001604052806000815250905090565b606061121082610d2b565b61124f576040517f08c379a000000000000000000000000000000000000000000000000000000000815260040161124690612810565b60405180910390fd5b60006112596111ee565b9050600081511161127957604051806020016040528060008152506112a4565b80611283846116ae565b604051602001611294929190612479565b6040516020818303038152906040525b915050919050565b6001816000016000828254019250508190555050565b600081600001549050919050565b600073ffffffffffffffffffffffffffffffffffffffff168273ffffffffffffffffffffffffffffffffffffffff161415611340576040517f08c379a00000000000000000000000000000000000000000000000000000000081526004016113379061287c565b60405180910390fd5b61134981610d2b565b15611389576040517f08c379a0000000000000000000000000000000000000000000000000000000008152600401611380906128e8565b60405180910390fd5b61139560008383611512565b6001600360008473ffffffffffffffffffffffffffffffffffffffff1673ffffffffffffffffffffffffffffffffffffffff16815260200190815260200160002060008282546113e591906126b6565b92505081905550816002600083815260200190815260200160002060006101000a81548173ffffffffffffffffffffffffffffffffffffffff021916908373ffffffffffffffffffffffffffffffffffffffff160217905550808273ffffffffffffffffffffffffffffffffffffffff16600073ffffffffffffffffffffffffffffffffffffffff167fddf252ad1be2c89b69c2b068fc378daa952ba7f163c4a11628f55a4df523b3ef60405160405180910390a45050565b6114a782610d2b565b6114e6576040517f08c379a00000000000000000000000000000000000000000000000000000000081526004016114dd9061297a565b60405180910390fd5b8060066000848152602001908152602001600020908051906020019061150d929190611822565b505050565b505050565b60006115388473ffffffffffffffffffffffffffffffffffffffff1661180f565b156116a1578373ffffffffffffffffffffffffffffffffffffffff1663150b7a02611561610d97565b8786866040518563ffffffff1660e01b815260040161158394939291906129ef565b602060405180830381600087803b15801561159d57600080fd5b505af19250505080156115ce57506040513d601f19601f820116820180604052508101906115cb9190612a50565b60015b611651573d80600081146115fe576040519150601f19603f3d011682016040523d82523d6000602084013e611603565b606091505b50600081511415611649576040517f08c379a00000000000000000000000000000000000000000000000000000000081526004016116409061277e565b60405180910390fd5b805181602001fd5b63150b7a0260e01b7bffffffffffffffffffffffffffffffffffffffffffffffffffffffff1916817bffffffffffffffffffffffffffffffffffffffffffffffffffffffff1916149150506116a6565b600190505b949350505050565b606060008214156116f6576040518060400160405280600181526020017f3000000000000000000000000000000000000000000000000000000000000000815250905061180a565b600082905060005b6000821461172857808061171190612a7d565b915050600a826117219190612af5565b91506116fe565b60008167ffffffffffffffff81111561174457611743611c9a565b5b6040519080825280601f01601f1916602001820160405280156117765781602001600182028036833780820191505090505b5090505b600085146118035760018261178f9190612682565b9150600a8561179e9190612b26565b60306117aa91906126b6565b60f81b8183815181106117c0576117bf612b57565b5b60200101907effffffffffffffffffffffffffffffffffffffffffffffffffffffffffffff1916908160001a905350600a856117fc9190612af5565b945061177a565b8093505050505b919050565b600080823b905060008111915050919050565b82805461182e90611fa1565b90600052602060002090601f0160209004810192826118505760008555611897565b82601f1061186957805160ff1916838001178555611897565b82800160010185558215611897579182015b8281111561189657825182559160200191906001019061187b565b5b5090506118a491906118a8565b5090565b5b808211156118c15760008160009055506001016118a9565b5090565b6000604051905090565b600080fd5b600080fd5b60007fffffffff0000000000000000000000000000000000000000000000000000000082169050919050565b61190e816118d9565b811461191957600080fd5b50565b60008135905061192b81611905565b92915050565b600060208284031215611947576119466118cf565b5b60006119558482850161191c565b91505092915050565b60008115159050919050565b6119738161195e565b82525050565b600060208201905061198e600083018461196a565b92915050565b600081519050919050565b600082825260208201905092915050565b60005b838110156119ce5780820151818401526020810190506119b3565b838111156119dd576000848401525b50505050565b6000601f19601f8301169050919050565b60006119ff82611994565b611a09818561199f565b9350611a198185602086016119b0565b611a22816119e3565b840191505092915050565b60006020820190508181036000830152611a4781846119f4565b905092915050565b6000819050919050565b611a6281611a4f565b8114611a6d57600080fd5b50565b600081359050611a7f81611a59565b92915050565b600060208284031215611a9b57611a9a6118cf565b5b6000611aa984828501611a70565b91505092915050565b600073ffffffffffffffffffffffffffffffffffffffff82169050919050565b6000611add82611ab2565b9050919050565b611aed81611ad2565b82525050565b6000602082019050611b086000830184611ae4565b92915050565b611b1781611ad2565b8114611b2257600080fd5b50565b600081359050611b3481611b0e565b92915050565b60008060408385031215611b5157611b506118cf565b5b6000611b5f85828601611b25565b9250506020611b7085828601611a70565b9150509250929050565b600080600060608486031215611b9357611b926118cf565b5b6000611ba186828701611b25565b9350506020611bb286828701611b25565b9250506040611bc386828701611a70565b9150509250925092565b600060208284031215611be357611be26118cf565b5b6000611bf184828501611b25565b91505092915050565b611c0381611a4f565b82525050565b6000602082019050611c1e6000830184611bfa565b92915050565b611c2d8161195e565b8114611c3857600080fd5b50565b600081359050611c4a81611c24565b92915050565b60008060408385031215611c6757611c666118cf565b5b6000611c7585828601611b25565b9250506020611c8685828601611c3b565b9150509250929050565b600080fd5b600080fd5b7f4e487b7100000000000000000000000000000000000000000000000000000000600052604160045260246000fd5b611cd2826119e3565b810181811067ffffffffffffffff82111715611cf157611cf0611c9a565b5b80604052505050565b6000611d046118c5565b9050611d108282611cc9565b919050565b600067ffffffffffffffff821115611d3057611d2f611c9a565b5b611d39826119e3565b9050602081019050919050565b82818337600083830152505050565b6000611d68611d6384611d15565b611cfa565b905082815260208101848484011115611d8457611d83611c95565b5b611d8f848285611d46565b509392505050565b600082601f830112611dac57611dab611c90565b5b8135611dbc848260208601611d55565b91505092915050565b60008060008060808587031215611ddf57611dde6118cf565b5b6000611ded87828801611b25565b9450506020611dfe87828801611b25565b9350506040611e0f87828801611a70565b925050606085013567ffffffffffffffff811115611e3057611e2f6118d4565b5b611e3c87828801611d97565b91505092959194509250565b600067ffffffffffffffff821115611e6357611e62611c9a565b5b611e6c826119e3565b9050602081019050919050565b6000611e8c611e8784611e48565b611cfa565b905082815260208101848484011115611ea857611ea7611c95565b5b611eb3848285611d46565b509392505050565b600082601f830112611ed057611ecf611c90565b5b8135611ee0848260208601611e79565b91505092915050565b600060208284031215611eff57611efe6118cf565b5b600082013567ffffffffffffffff811115611f1d57611f1c6118d4565b5b611f2984828501611ebb565b91505092915050565b60008060408385031215611f4957611f486118cf565b5b6000611f5785828601611b25565b9250506020611f6885828601611b25565b9150509250929050565b7f4e487b7100000000000000000000000000000000000000000000000000000000600052602260045260246000fd5b60006002820490506001821680611fb957607f821691505b60208210811415611fcd57611fcc611f72565b5b50919050565b7f4552433732313a20617070726f76656420717565727920666f72206e6f6e657860008201527f697374656e7420746f6b656e0000000000000000000000000000000000000000602082015250565b600061202f602c8361199f565b915061203a82611fd3565b604082019050919050565b6000602082019050818103600083015261205e81612022565b9050919050565b7f4552433732313a20617070726f76616c20746f2063757272656e74206f776e6560008201527f7200000000000000000000000000000000000000000000000000000000000000602082015250565b60006120c160218361199f565b91506120cc82612065565b604082019050919050565b600060208201905081810360008301526120f0816120b4565b9050919050565b7f4552433732313a20617070726f76652063616c6c6572206973206e6f74206f7760008201527f6e6572206e6f7220617070726f76656420666f7220616c6c0000000000000000602082015250565b600061215360388361199f565b915061215e826120f7565b604082019050919050565b6000602082019050818103600083015261218281612146565b9050919050565b7f4552433732313a207472616e736665722063616c6c6572206973206e6f74206f60008201527f776e6572206e6f7220617070726f766564000000000000000000000000000000602082015250565b60006121e560318361199f565b91506121f082612189565b604082019050919050565b60006020820190508181036000830152612214816121d8565b9050919050565b7f4552433732313a206f776e657220717565727920666f72206e6f6e657869737460008201527f656e7420746f6b656e0000000000000000000000000000000000000000000000602082015250565b600061227760298361199f565b91506122828261221b565b604082019050919050565b600060208201905081810360008301526122a68161226a565b9050919050565b7f4552433732313a2062616c616e636520717565727920666f7220746865207a6560008201527f726f206164647265737300000000000000000000000000000000000000000000602082015250565b6000612309602a8361199f565b9150612314826122ad565b604082019050919050565b60006020820190508181036000830152612338816122fc565b9050919050565b7f4552433732313a20617070726f766520746f2063616c6c657200000000000000600082015250565b600061237560198361199f565b91506123808261233f565b602082019050919050565b600060208201905081810360008301526123a481612368565b9050919050565b7f45524337323155524953746f726167653a2055524920717565727920666f722060008201527f6e6f6e6578697374656e7420746f6b656e000000000000000000000000000000602082015250565b600061240760318361199f565b9150612412826123ab565b604082019050919050565b60006020820190508181036000830152612436816123fa565b9050919050565b600081905092915050565b600061245382611994565b61245d818561243d565b935061246d8185602086016119b0565b80840191505092915050565b60006124858285612448565b91506124918284612448565b91508190509392505050565b7f4552433732313a206f70657261746f7220717565727920666f72206e6f6e657860008201527f697374656e7420746f6b656e0000000000000000000000000000000000000000602082015250565b60006124f9602c8361199f565b91506125048261249d565b604082019050919050565b60006020820190508181036000830152612528816124ec565b9050919050565b7f4552433732313a207472616e73666572206f6620746f6b656e2074686174206960008201527f73206e6f74206f776e0000000000000000000000000000000000000000000000602082015250565b600061258b60298361199f565b91506125968261252f565b604082019050919050565b600060208201905081810360008301526125ba8161257e565b9050919050565b7f4552433732313a207472616e7366657220746f20746865207a65726f2061646460008201527f7265737300000000000000000000000000000000000000000000000000000000602082015250565b600061261d60248361199f565b9150612628826125c1565b604082019050919050565b6000602082019050818103600083015261264c81612610565b9050919050565b7f4e487b7100000000000000000000000000000000000000000000000000000000600052601160045260246000fd5b600061268d82611a4f565b915061269883611a4f565b9250828210156126ab576126aa612653565b5b828203905092915050565b60006126c182611a4f565b91506126cc83611a4f565b9250827fffffffffffffffffffffffffffffffffffffffffffffffffffffffffffffffff0382111561270157612700612653565b5b828201905092915050565b7f4552433732313a207472616e7366657220746f206e6f6e20455243373231526560008201527f63656976657220696d706c656d656e7465720000000000000000000000000000602082015250565b600061276860328361199f565b91506127738261270c565b604082019050919050565b600060208201905081810360008301526127978161275b565b9050919050565b7f4552433732314d657461646174613a2055524920717565727920666f72206e6f60008201527f6e6578697374656e7420746f6b656e0000000000000000000000000000000000602082015250565b60006127fa602f8361199f565b91506128058261279e565b604082019050919050565b60006020820190508181036000830152612829816127ed565b9050919050565b7f4552433732313a206d696e7420746f20746865207a65726f2061646472657373600082015250565b600061286660208361199f565b915061287182612830565b602082019050919050565b6000602082019050818103600083015261289581612859565b9050919050565b7f4552433732313a20746f6b656e20616c7265616479206d696e74656400000000600082015250565b60006128d2601c8361199f565b91506128dd8261289c565b602082019050919050565b60006020820190508181036000830152612901816128c5565b9050919050565b7f45524337323155524953746f726167653a2055524920736574206f66206e6f6e60008201527f6578697374656e7420746f6b656e000000000000000000000000000000000000602082015250565b6000612964602e8361199f565b915061296f82612908565b604082019050919050565b6000602082019050818103600083015261299381612957565b9050919050565b600081519050919050565b600082825260208201905092915050565b60006129c18261299a565b6129cb81856129a5565b93506129db8185602086016119b0565b6129e4816119e3565b840191505092915050565b6000608082019050612a046000830187611ae4565b612a116020830186611ae4565b612a1e6040830185611bfa565b8181036060830152612a3081846129b6565b905095945050505050565b600081519050612a4a81611905565b92915050565b600060208284031215612a6657612a656118cf565b5b6000612a7484828501612a3b565b91505092915050565b6000612a8882611a4f565b91507fffffffffffffffffffffffffffffffffffffffffffffffffffffffffffffffff821415612abb57612aba612653565b5b600182019050919050565b7f4e487b7100000000000000000000000000000000000000000000000000000000600052601260045260246000fd5b6000612b0082611a4f565b9150612b0b83611a4f565b925082612b1b57612b1a612ac6565b5b828204905092915050565b6000612b3182611a4f565b9150612b3c83611a4f565b925082612b4c57612b4b612ac6565b5b828206905092915050565b7f4e487b7100000000000000000000000000000000000000000000000000000000600052603260045260246000fdfea2646970667358221220a5316f657b3976a36ab45adfac83e19c794a50848bfa19fb54ed8b51254217d064736f6c63430008090033",
  "immutableReferences": {},
  "source": "// SPDX-License-Identifier: MIT\npragma solidity >=0.4.22 <0.9.0;\n\nimport \"@openzeppelin/contracts/utils/Counters.sol\";\nimport \"@openzeppelin/contracts/token/ERC721/extensions/ERC721URIStorage.sol\";\nimport \"@openzeppelin/contracts/token/ERC721/extensions/ERC721Enumerable.sol\";\nimport \"@openzeppelin/contracts/token/ERC721/ERC721.sol\";\n\n\n\ncontract NFT is ERC721URIStorage{\n\n    using Counters for Counters.Counter;\n    Counters.Counter private nftTokenId;\n\n\n    address contractAddress;\n\n    constructor(address marketplaceAddress)ERC721(\"arabicNFt\",\"arNFT\"){\n\n        contractAddress = marketplaceAddress;\n\n    }\n\n    function createNFtToken(string memory nftTokenURl)public  returns (uint256){\n        nftTokenId.increment();\n        uint256 id = nftTokenId.current();\n        _mint(msg.sender,id);\n\n        _setTokenURI(id,nftTokenURl);\n   \n        setApprovalForAll  (contractAddress,true);\n    \n\n        return id;\n    \n    }\n\n\n\n}",
  "sourcePath": "C:\\Users\\Waseem\\Downloads\\Compressed\\codecanyon-IWw0SIT3-opensee-full-nft-blockchain-marketplace-like-opensea-solidity-and-nextjs\\Main Nft Market Code V2\\Code\\OpenSee_Nft_MarketPlace_Enato-main\\OpenSee_Nft_MarketPlace_Enato-main\\contracts\\NFT.sol",
  "compiler": {
    "name": "solc",
    "version": "0.8.9+commit.e5eed63a.Emscripten.clang"
  },
  "schemaVersion": "3.4.5",
  "updatedAt": "2022-02-25T06:49:28.126Z",
  "networkType": "ethereum",
  "devdoc": {
    "kind": "dev",
    "methods": {
      "approve(address,uint256)": {
        "details": "See {IERC721-approve}."
      },
      "balanceOf(address)": {
        "details": "See {IERC721-balanceOf}."
      },
      "getApproved(uint256)": {
        "details": "See {IERC721-getApproved}."
      },
      "isApprovedForAll(address,address)": {
        "details": "See {IERC721-isApprovedForAll}."
      },
      "name()": {
        "details": "See {IERC721Metadata-name}."
      },
      "ownerOf(uint256)": {
        "details": "See {IERC721-ownerOf}."
      },
      "safeTransferFrom(address,address,uint256)": {
        "details": "See {IERC721-safeTransferFrom}."
      },
      "safeTransferFrom(address,address,uint256,bytes)": {
        "details": "See {IERC721-safeTransferFrom}."
      },
      "setApprovalForAll(address,bool)": {
        "details": "See {IERC721-setApprovalForAll}."
      },
      "supportsInterface(bytes4)": {
        "details": "See {IERC165-supportsInterface}."
      },
      "symbol()": {
        "details": "See {IERC721Metadata-symbol}."
      },
      "tokenURI(uint256)": {
        "details": "See {IERC721Metadata-tokenURI}."
      },
      "transferFrom(address,address,uint256)": {
        "details": "See {IERC721-transferFrom}."
      }
    },
    "version": 1
  },
  "userdoc": {
    "kind": "user",
    "methods": {},
    "version": 1
  }
}